{
  "_format": "hh-sol-artifact-1",
  "contractName": "SimpleLandRegistry",
  "sourceName": "contracts/SimpleRegistryLand.sol",
  "abi": [
    {
      "inputs": [],
      "stateMutability": "nonpayable",
      "type": "constructor"
    },
    {
      "anonymous": false,
      "inputs": [
        {
          "indexed": true,
          "internalType": "string",
          "name": "landId",
          "type": "string"
        },
        {
          "indexed": false,
          "internalType": "string",
          "name": "ownerName",
          "type": "string"
        },
        {
          "indexed": true,
          "internalType": "address",
          "name": "owner",
          "type": "address"
        }
      ],
      "name": "LandRegistered",
      "type": "event"
    },
    {
      "anonymous": false,
      "inputs": [
        {
          "indexed": true,
          "internalType": "string",
          "name": "landId",
          "type": "string"
        },
        {
          "indexed": true,
          "internalType": "address",
          "name": "oldOwner",
          "type": "address"
        },
        {
          "indexed": true,
          "internalType": "address",
          "name": "newOwner",
          "type": "address"
        }
      ],
      "name": "OwnershipTransferred",
      "type": "event"
    },
    {
      "inputs": [],
      "name": "admin",
      "outputs": [
        {
          "internalType": "address",
          "name": "",
          "type": "address"
        }
      ],
      "stateMutability": "view",
      "type": "function"
    },
    {
      "inputs": [
        {
          "internalType": "string",
          "name": "_landId",
          "type": "string"
        }
      ],
      "name": "getLandDetails",
      "outputs": [
        {
          "internalType": "string",
          "name": "landId",
          "type": "string"
        },
        {
          "internalType": "string",
          "name": "ownerName",
          "type": "string"
        },
        {
          "internalType": "string",
          "name": "ownerContact",
          "type": "string"
        },
        {
          "internalType": "address",
          "name": "ownerAddress",
          "type": "address"
        },
        {
          "internalType": "bool",
          "name": "isRegistered",
          "type": "bool"
        }
      ],
      "stateMutability": "view",
      "type": "function"
    },
    {
      "inputs": [
        {
          "internalType": "string",
          "name": "_landId",
          "type": "string"
        }
      ],
      "name": "isLandRegistered",
      "outputs": [
        {
          "internalType": "bool",
          "name": "",
          "type": "bool"
        }
      ],
      "stateMutability": "view",
      "type": "function"
    },
    {
      "inputs": [
        {
          "internalType": "string",
          "name": "_landId",
          "type": "string"
        },
        {
          "internalType": "string",
          "name": "_ownerName",
          "type": "string"
        },
        {
          "internalType": "string",
          "name": "_ownerContact",
          "type": "string"
        }
      ],
      "name": "registerLand",
      "outputs": [],
      "stateMutability": "nonpayable",
      "type": "function"
    },
    {
      "inputs": [
        {
          "internalType": "string",
          "name": "_landId",
          "type": "string"
        },
        {
          "internalType": "address",
          "name": "_newOwner",
          "type": "address"
        },
        {
          "internalType": "string",
          "name": "_newOwnerName",
          "type": "string"
        },
        {
          "internalType": "string",
          "name": "_newOwnerContact",
          "type": "string"
        }
      ],
      "name": "transferLand",
      "outputs": [],
      "stateMutability": "nonpayable",
      "type": "function"
    }
  ],
  "bytecode": "0x608060405234801561001057600080fd5b5033600160006101000a81548173ffffffffffffffffffffffffffffffffffffffff021916908373ffffffffffffffffffffffffffffffffffffffff160217905550611689806100616000396000f3fe608060405234801561001057600080fd5b50600436106100575760003560e01c806325baa2201461005c5780633e4157a91461008c5780639a2ae37c146100a8578063b829c12a146100dc578063f851a440146100f8575b600080fd5b61007660048036038101906100719190610d88565b610116565b6040516100839190610dec565b60405180910390f35b6100a660048036038101906100a19190610e65565b61014d565b005b6100c260048036038101906100bd9190610d88565b61052c565b6040516100d3959493929190610fae565b60405180910390f35b6100f660048036038101906100f19190611016565b610841565b005b610100610c08565b60405161010d91906110bd565b60405180910390f35b600080826040516101279190611114565b908152602001604051809103902060030160149054906101000a900460ff169050919050565b836000808260405161015f9190611114565b908152602001604051809103902090508060030160149054906101000a900460ff166101c0576040517f08c379a00000000000000000000000000000000000000000000000000000000081526004016101b790611177565b60405180910390fd5b3373ffffffffffffffffffffffffffffffffffffffff168160030160009054906101000a900473ffffffffffffffffffffffffffffffffffffffff1673ffffffffffffffffffffffffffffffffffffffff1614610252576040517f08c379a0000000000000000000000000000000000000000000000000000000008152600401610249906111e3565b60405180910390fd5b836040518060400160405280600e81526020017f4e6577206f776e6572206e616d6500000000000000000000000000000000000081525060008251118160405160200161029f919061124f565b604051602081830303815290604052906102ef576040517f08c379a00000000000000000000000000000000000000000000000000000000081526004016102e69190611271565b60405180910390fd5b50846040518060400160405280601181526020017f4e6577206f776e657220636f6e7461637400000000000000000000000000000081525060008251118160405160200161033d919061124f565b6040516020818303038152906040529061038d576040517f08c379a00000000000000000000000000000000000000000000000000000000081526004016103849190611271565b60405180910390fd5b50600073ffffffffffffffffffffffffffffffffffffffff168973ffffffffffffffffffffffffffffffffffffffff16036103fd576040517f08c379a00000000000000000000000000000000000000000000000000000000081526004016103f4906112df565b60405180910390fd5b6000808b60405161040e9190611114565b9081526020016040518091039020905060008160030160009054906101000a900473ffffffffffffffffffffffffffffffffffffffff1690508a8260030160006101000a81548173ffffffffffffffffffffffffffffffffffffffff021916908373ffffffffffffffffffffffffffffffffffffffff1602179055508982600101908161049b9190611515565b50888260020190816104ad9190611515565b508a73ffffffffffffffffffffffffffffffffffffffff168173ffffffffffffffffffffffffffffffffffffffff168d6040516104ea9190611114565b60405180910390207f6840904f5b31827f74e1497360da245f56e530c8c3de3163a2d31f11493273c660405160405180910390a4505050505050505050505050565b6060806060600080856040518060400160405280600781526020017f4c616e6420494400000000000000000000000000000000000000000000000000815250600082511181604051602001610581919061124f565b604051602081830303815290604052906105d1576040517f08c379a00000000000000000000000000000000000000000000000000000000081526004016105c89190611271565b60405180910390fd5b50600080896040516105e39190611114565b908152602001604051809103902090508060030160149054906101000a900460ff16610644576040517f08c379a000000000000000000000000000000000000000000000000000000000815260040161063b90611177565b60405180910390fd5b8060000181600101826002018360030160009054906101000a900473ffffffffffffffffffffffffffffffffffffffff168460030160149054906101000a900460ff168480546106939061132e565b80601f01602080910402602001604051908101604052809291908181526020018280546106bf9061132e565b801561070c5780601f106106e15761010080835404028352916020019161070c565b820191906000526020600020905b8154815290600101906020018083116106ef57829003601f168201915b5050505050945083805461071f9061132e565b80601f016020809104026020016040519081016040528092919081815260200182805461074b9061132e565b80156107985780601f1061076d57610100808354040283529160200191610798565b820191906000526020600020905b81548152906001019060200180831161077b57829003601f168201915b505050505093508280546107ab9061132e565b80601f01602080910402602001604051908101604052809291908181526020018280546107d79061132e565b80156108245780601f106107f957610100808354040283529160200191610824565b820191906000526020600020905b81548152906001019060200180831161080757829003601f168201915b505050505092509750975097509750975050505091939590929450565b826040518060400160405280600781526020017f4c616e642049440000000000000000000000000000000000000000000000000081525060008251118160405160200161088e919061124f565b604051602081830303815290604052906108de576040517f08c379a00000000000000000000000000000000000000000000000000000000081526004016108d59190611271565b60405180910390fd5b50836040518060400160405280600a81526020017f4f776e6572206e616d650000000000000000000000000000000000000000000081525060008251118160405160200161092c919061124f565b6040516020818303038152906040529061097c576040517f08c379a00000000000000000000000000000000000000000000000000000000081526004016109739190611271565b60405180910390fd5b50846040518060400160405280600d81526020017f4f776e657220636f6e74616374000000000000000000000000000000000000008152506000825111816040516020016109ca919061124f565b60405160208183030381529060405290610a1a576040517f08c379a0000000000000000000000000000000000000000000000000000000008152600401610a119190611271565b60405180910390fd5b506000808a604051610a2c9190611114565b908152602001604051809103902090508060030160149054906101000a900460ff1615610a8e576040517f08c379a0000000000000000000000000000000000000000000000000000000008152600401610a8590611633565b60405180910390fd5b6040518060a001604052808b81526020018a81526020018981526020013373ffffffffffffffffffffffffffffffffffffffff1681526020016001151581525060008b604051610ade9190611114565b90815260200160405180910390206000820151816000019081610b019190611515565b506020820151816001019081610b179190611515565b506040820151816002019081610b2d9190611515565b5060608201518160030160006101000a81548173ffffffffffffffffffffffffffffffffffffffff021916908373ffffffffffffffffffffffffffffffffffffffff16021790555060808201518160030160146101000a81548160ff0219169083151502179055509050503373ffffffffffffffffffffffffffffffffffffffff168a604051610bbd9190611114565b60405180910390207f8fc0b98e2a4d15d56022a359dfad20c1a2f2dae54da50c061967e456c4c3d6558b604051610bf49190611271565b60405180910390a350505050505050505050565b600160009054906101000a900473ffffffffffffffffffffffffffffffffffffffff1681565b6000604051905090565b600080fd5b600080fd5b600080fd5b600080fd5b6000601f19601f8301169050919050565b7f4e487b7100000000000000000000000000000000000000000000000000000000600052604160045260246000fd5b610c9582610c4c565b810181811067ffffffffffffffff82111715610cb457610cb3610c5d565b5b80604052505050565b6000610cc7610c2e565b9050610cd38282610c8c565b919050565b600067ffffffffffffffff821115610cf357610cf2610c5d565b5b610cfc82610c4c565b9050602081019050919050565b82818337600083830152505050565b6000610d2b610d2684610cd8565b610cbd565b905082815260208101848484011115610d4757610d46610c47565b5b610d52848285610d09565b509392505050565b600082601f830112610d6f57610d6e610c42565b5b8135610d7f848260208601610d18565b91505092915050565b600060208284031215610d9e57610d9d610c38565b5b600082013567ffffffffffffffff811115610dbc57610dbb610c3d565b5b610dc884828501610d5a565b91505092915050565b60008115159050919050565b610de681610dd1565b82525050565b6000602082019050610e016000830184610ddd565b92915050565b600073ffffffffffffffffffffffffffffffffffffffff82169050919050565b6000610e3282610e07565b9050919050565b610e4281610e27565b8114610e4d57600080fd5b50565b600081359050610e5f81610e39565b92915050565b60008060008060808587031215610e7f57610e7e610c38565b5b600085013567ffffffffffffffff811115610e9d57610e9c610c3d565b5b610ea987828801610d5a565b9450506020610eba87828801610e50565b935050604085013567ffffffffffffffff811115610edb57610eda610c3d565b5b610ee787828801610d5a565b925050606085013567ffffffffffffffff811115610f0857610f07610c3d565b5b610f1487828801610d5a565b91505092959194509250565b600081519050919050565b600082825260208201905092915050565b60005b83811015610f5a578082015181840152602081019050610f3f565b60008484015250505050565b6000610f7182610f20565b610f7b8185610f2b565b9350610f8b818560208601610f3c565b610f9481610c4c565b840191505092915050565b610fa881610e27565b82525050565b600060a0820190508181036000830152610fc88188610f66565b90508181036020830152610fdc8187610f66565b90508181036040830152610ff08186610f66565b9050610fff6060830185610f9f565b61100c6080830184610ddd565b9695505050505050565b60008060006060848603121561102f5761102e610c38565b5b600084013567ffffffffffffffff81111561104d5761104c610c3d565b5b61105986828701610d5a565b935050602084013567ffffffffffffffff81111561107a57611079610c3d565b5b61108686828701610d5a565b925050604084013567ffffffffffffffff8111156110a7576110a6610c3d565b5b6110b386828701610d5a565b9150509250925092565b60006020820190506110d26000830184610f9f565b92915050565b600081905092915050565b60006110ee82610f20565b6110f881856110d8565b9350611108818560208601610f3c565b80840191505092915050565b600061112082846110e3565b915081905092915050565b7f4c616e64206e6f74207265676973746572656400000000000000000000000000600082015250565b6000611161601383610f2b565b915061116c8261112b565b602082019050919050565b6000602082019050818103600083015261119081611154565b9050919050565b7f43616c6c6572206973206e6f7420746865206f776e6572000000000000000000600082015250565b60006111cd601783610f2b565b91506111d882611197565b602082019050919050565b600060208201905081810360008301526111fc816111c0565b9050919050565b7f2063616e6e6f7420626520656d70747900000000000000000000000000000000600082015250565b60006112396010836110d8565b915061124482611203565b601082019050919050565b600061125b82846110e3565b91506112668261122c565b915081905092915050565b6000602082019050818103600083015261128b8184610f66565b905092915050565b7f496e76616c6964206e6577206f776e6572206164647265737300000000000000600082015250565b60006112c9601983610f2b565b91506112d482611293565b602082019050919050565b600060208201905081810360008301526112f8816112bc565b9050919050565b7f4e487b7100000000000000000000000000000000000000000000000000000000600052602260045260246000fd5b6000600282049050600182168061134657607f821691505b602082108103611359576113586112ff565b5b50919050565b60008190508160005260206000209050919050565b60006020601f8301049050919050565b600082821b905092915050565b6000600883026113c17fffffffffffffffffffffffffffffffffffffffffffffffffffffffffffffffff82611384565b6113cb8683611384565b95508019841693508086168417925050509392505050565b6000819050919050565b6000819050919050565b600061141261140d611408846113e3565b6113ed565b6113e3565b9050919050565b6000819050919050565b61142c836113f7565b61144061143882611419565b848454611391565b825550505050565b600090565b611455611448565b611460818484611423565b505050565b5b818110156114845761147960008261144d565b600181019050611466565b5050565b601f8211156114c95761149a8161135f565b6114a384611374565b810160208510156114b2578190505b6114c66114be85611374565b830182611465565b50505b505050565b600082821c905092915050565b60006114ec600019846008026114ce565b1980831691505092915050565b600061150583836114db565b9150826002028217905092915050565b61151e82610f20565b67ffffffffffffffff81111561153757611536610c5d565b5b611541825461132e565b61154c828285611488565b600060209050601f83116001811461157f576000841561156d578287015190505b61157785826114f9565b8655506115df565b601f19841661158d8661135f565b60005b828110156115b557848901518255600182019150602085019450602081019050611590565b868310156115d257848901516115ce601f8916826114db565b8355505b6001600288020188555050505b505050505050565b7f4c616e6420616c72656164792072656769737465726564000000000000000000600082015250565b600061161d601783610f2b565b9150611628826115e7565b602082019050919050565b6000602082019050818103600083015261164c81611610565b905091905056fea26469706673582212209670d9ca99c5057114c0008542aadd177b202acab7cbec43a2c8e341cbb94d2664736f6c63430008140033",
  "linkReferences": {},
  "deployedLinkReferences": {}
}